:020000041000EA
:1004000000940008830400100D00000061AF00108C
:1004100000000000000000000000000000000000DC
:1004200000000000000000000000000051AF0010BC
:10043000000000000000000015AF001001050010D2
:1004400001050010A1820010010500100105001037
:100450000105001001050010010500107181001058
:100460000105001001050010010500100105001034
:100470000105001001050010010500100105001024
:100480007047FFF7FDFF72B6164C174DAC4209DA04
:1004900021686268A368043B02DBC858D050FAE7C1
:1004A0000C34F3E7114B124CA34208DA19685A686E
:1004B0000020043A01DB8850FBE70833F4E70D48DD
:1004C0000D490860BFF34F8F07F006FFEFF314806C
:1004D0000221084380F31488084880F3098809F052
:1004E0001BFFFEE7200500105C0500105C050010F6
:1004F00074050010008E010808ED00E0009C000863
:10050000FEE7FEE700B504207146084202D0EFF393
:10051000098001E0EFF30880043026F015FBFEE7C8
:1005200000040010008E01088000000040BD021091
:10053000808E01085002000000BD0210009C0008DF
:100540004000000000BD021000180008000000007C
:0C05500090BF021000F8020858030000E1
:10055C00D0900108706E0000409C0008C0F10000B3
:08056C0000180008202800001F
:1005800010B5034B0A000100186800F029F810BDEF
:1005900064900108014B18687047C04664900108D8
:1005A000084B10B50400002B02D0002100E000BF72
:1005B000054B1868836A002B00D09847200027F06D
:1005C00049FEC04600000000A00C001010B5034B0F
:1005D0000100186800F030F810BDC04664900108B2
:1005E00070B5130C0D0C1ED1002B0CD189B294B236
:1005F0004C43210000F08CF8051E1BD02200002186
:1006000000F0CAFD16E01D1C0B1C92B289B29CB210
:100610005143ABB263430C0C1C19220C07D12404C8
:1006200089B20C43E5E7002B01D1131CEDE70C2345
:1006300000250360280070BD70B50500002910D0AA
:100640000C1F2368002B00DAE418280000F094FA4D
:100650001D4A1368002B05D163601460280000F068
:1006600093FA70BDA34208D9216860188342F3D180
:1006700018685B6841182160EEE71A005B68002B80
:1006800001D0A342F9D911685018A0420BD12068BB
:100690000918501811608342E0D118685B6841184E
:1006A00011605360DAE7A04202D90C232B60D5E732
:1006B00021686018834203D118685B684118216083
:1006C00063605460CAE7C0462CFF010870B50F4E46
:1006D0000D0031680400002902D100F08FF830606D
:1006E0002900200000F08AF8431C0AD00323C51C0F
:1006F0009D43A84207D0291A200000F07FF8431C30
:1007000001D101256D42280070BDC04630FF0108AF
:10071000F7B50322CB1C9343083306001F000C2BB4
:1007200032D20C27B94231D8300000F025FA324DD0
:100730002B681C00002C2ED139003000FFF7C6FFBB
:100740000400431C1ED12C682500002D4AD12368CB
:100750002900E3183000019300F050F8019B834218
:1007600043D123680337FF1A03239F4308370C2F15
:1007700000D20C2739003000FFF7A8FF431C34D00B
:100780002368DF19276013E0002BCBDA0C23002548
:1007900033602800FEBD2268D11B20D40B2917D955
:1007A000E2192760A34211D12A6063681160536087
:1007B0003000250000F0E8F907220B35231D954392
:1007C000EA1A9D42E5D05B1BA350E2E75A60ECE7D2
:1007D0006268A34201D12A60EAE75A60E8E7230091
:1007E0006468A7E72C006D68AFE70C233000336026
:1007F00000F0CAF9CDE7C0462CFF0108002370B510
:10080000064D040008002B6027F016FD431C03D1A1
:100810002B68002B00D0236070BDC04634FF010858
:10082000C9B20378002B04D08B4200D1704701304D
:10083000F7E74B42594149420840F7E702780B7805
:10084000002A03D0013001319A42F7D0D01A704704
:100850000023C25C0133002AFBD1581E704730B51B
:100860000500101E08D00024013A2B5D085D83426C
:1008700001D1944201D1181A30BD0134002BF4D1BA
:10088000F9E7030030B51D00002A06D00C78013AC4
:1008900001332C700131002CF5D100219A189342BC
:1008A00000D130BD19700133F9E70A7830B5002A5C
:1008B0000CD130BD9A4208D10123CC5C002CF8D079
:1008C000C55CA54201D10133F7E701300378002B65
:1008D000F0D11800EDE70000F0B58DB00392534A57
:1008E0001E0002910B00944608210A901A006046EF
:1008F00014780133005D1D0007000F400842F5D158
:100900002D2C53D11C780123951C0193002E00D16E
:1009100086E0102E0AD1302C08D120222B78934368
:10092000582B00D076E010266C7802350120002389
:100930003F49019A404212184B4104920593049892
:100940000599F31732000B9300F086FA00230F008D
:1009500008900021002009922200303A092A2BD861
:100960001400A64237DD5A1C1DD0B94230D802D13E
:10097000089B98422CD8089B834206D18F4204D111
:100980000123099A5B42A2420DDB0B0002000B9986
:10099000300000F081FAE31706940793069B079C4A
:1009A000C018614101232C780135D5E701972B2C24
:1009B000ACD11C78951CA9E72200413A192A01D82C
:1009C000373CCEE72200613A192A04D8573CC8E7E1
:1009D00001235B42E7E75A1C09D1049805990A9A5A
:1009E00023331360039B002B0ED10DB0F0BD019A91
:1009F000002A04D006000F0000217042B941039A7A
:100A0000002AF2D0002B01D06B1E0293039B029AA6
:100A10001A60EAE73024002E00D087E7083685E721
:100A2000302C00D179E70A2680E7C0469D0B0010E4
:100A3000FFFFFF7F10B513000A00010002480068A5
:100A4000FFF74AFF10BDC04664900108F0B587B0BB
:100A50000292424A1E0001910B0094460821059023
:100A60001A00604614780133005D1D0007000F4036
:100A70000842F5D12D2C3AD101271C78951C002E67
:100A800067D0102E09D1302C07D120222B78934328
:100A9000582B59D110266C78023501203100404284
:100AA00000F04EF9039001203100404200F0CEF9F1
:100AB000002304910121012218008C46524221009A
:100AC0003039092918D80C00A64223DD002B1FDB82
:100AD00003991300814207D303D104991300A14263
:100AE00002DB6346704320182C780135E7E72B2C96
:100AF000C5D11C78951CC2E721004139192901D8BC
:100B0000373CE1E721006139192903D8573CDBE77D
:100B10001300E9E7002B09DA22230120059A40425D
:100B20001360029B002B09D107B0F0BD002F00D04D
:100B30004042029A002AF7D0002B01D06B1E01938D
:100B4000029B019A1A60EFE73024002EA5D10836E7
:100B5000A3E7302C99D00A269FE7C0469D0B0010D2
:100B600010B513000A00010002480068FFF76EFF8D
:100B700010BDC0466490010810B5024800F00CF8A2
:100B800010BDC04638FF010810B5024800F005F856
:100B900010BDC04638FF0108704770470020202074
:100BA000202020202020282828282820202020201D
:100BB00020202020202020202020202020881010ED
:100BC0001010101010101010101010101004040449
:100BD0000404040404040410101010101010414107
:100BE00041414141010101010101010101010101F5
:100BF0000101010101010101101010101010424209
:100C000042424242020202020202020202020202C4
:100C10000202020202020202101010102000000064
:100C200000000000000000000000000000000000C4
:100C300000000000000000000000000000000000B4
:100C400000000000000000000000000000000000A4
:100C50000000000000000000000000000000000094
:100C60000000000000000000000000000000000084
:100C70000000000000000000000000000000000074
:100C80000000000000000000000000000000000064
:100C90000000000000000000000000000000000054
:100CA0006890010800000000000000000000000043
:100CB0000000000000000000000000000000000034
:100CC0000000000000000000000000000000000024
:100CD0000000000000000000000000000000000014
:100CE0000000000000000000000000000000000004
:100CF00000000000000000000000000000000000F4
:100D00000000000002B4714649084900095C49002E
:100D10008E4402BC7047C04603B471464908400087
:100D20004900095E49008E4403BC704703B4714614
:100D3000490840004900095A49008E4403BC7047E5
:100D4000002243088B4274D303098B425FD3030A0A
:100D50008B4244D3030B8B4228D3030C8B420DD31D
:100D6000FF22090212BA030C8B4202D312120902AB
:100D700065D0030B8B4219D300E0090AC30B8B42E9
:100D800001D3CB03C01A5241830B8B4201D38B0397
:100D9000C01A5241430B8B4201D34B03C01A52413C
:100DA000030B8B4201D30B03C01A5241C30A8B427F
:100DB00001D3CB02C01A5241830A8B4201D38B026A
:100DC000C01A5241430A8B4201D34B02C01A52410E
:100DD000030A8B4201D30B02C01A5241CDD2C30980
:100DE0008B4201D3CB01C01A524183098B4201D3FC
:100DF0008B01C01A524143098B4201D34B01C01AE7
:100E0000524103098B4201D30B01C01A5241C3085E
:100E10008B4201D3CB00C01A524183088B4201D3CD
:100E20008B00C01A524143088B4201D34B00C01AB9
:100E30005241411A00D20146524110467047FFE725
:100E400001B5002000F006F802BDC0460029F7D029
:100E500076E770477047C046002B11D1002A0FD1AA
:100E6000002900D1002802D00021C943080007B49E
:100E7000024802A14018029003BDC046D9FFFFFFFF
:100E800003B4684601B5029800F034F8019B9E4611
:100E900002B00CBC7047C046F0B5CE46474680B5A0
:100EA000070099463B0C9C4613041B0C1D000E00CA
:100EB00061460004140C000C45434B4360436143FE
:100EC000C0182C0C20188C46834203D980235B0267
:100ED0009846C444494679437243030C63442D0445
:100EE0002D0CC918000440198918C0BCB946B04679
:100EF000F0BDC046F0B557464E464546DE46E0B525
:100F000004000D009246994683B08B4230D82DD014
:100F10004946504600F0BAF829000600200000F0CB
:100F2000B5F8331A9846203B9B4633D45A4653466D
:100F3000934042461F00534693401E00AF423AD8AA
:100F4000AF4200D178E05B46A41BBD41002B00DA24
:100F500075E0002200230092019301235A4693403A
:100F60000193012342469340009328E08242CFD967
:100F700000220023009201930C9B002B01D01C60E7
:100F80005D600098019903B0F0BCBB46B246A9462B
:100F9000A046F0BD424620239B1A5246DA40414605
:100FA00013004A468A40170042461F435346934067
:100FB0001E00AF42C4D90022002300920193434691
:100FC000002BD9D0FB0772081A4346467B080EE077
:100FD000AB4201D1A2420CD8A41A9D410120241990
:100FE0006D410021013E24184D41002E06D0AB4238
:100FF000EED9013E24196D41002EF8D100980199D7
:101000005B4600196941002B24DB2B005A464446FD
:10101000D3402A00E2401C005B461500002B2ADB6F
:1010200026009E40330026004746BE403200801A0C
:101030009941009001919FE7A342BCD883E74246C3
:10104000202300219B1A0022009101920122DA4004
:10105000019286E7424620239B1A2A0046469A4080
:101060002300F340444613432A00E2401C005B4641
:101070001500002BD4DA42462F002023260097408B
:101080009B1ADE403B003343CDE7C04610B5002934
:1010900003D100F007F8203002E0080000F002F869
:1010A00010BDC0461C2101231B04984201D3000C33
:1010B00010391B0A984201D3000A08391B099842CB
:1010C00001D30009043902A2105C40187047C046E1
:1010D0000403020201010101000000000000000001
:1010E000F0B505000C00002A12D006000E43F307ED
:1010F0000FD5012705E01E000E431C000D003742EE
:1011000009D0631C2478013A691C2C70002AF2D1A2
:10111000F0BD0B000100012A36D0B40731D50224FE
:10112000A446D31889189E1AB41C36888D1A023A20
:10113000AF1C2E80012A2BD93D00664625432E4246
:10114000F1D1032A0FD9161FB608231DB600F618D1
:101150002300391B1C1DCF181B6808C72300A6429B
:10116000F8D103231A40531E002AD1D022783A70B6
:10117000002BCDD062787A70012BC9D0A378BB70D8
:10118000C6E71C000F00DCE701220F001C00EAE7A5
:1011900023003900F9E7C046F0B50400CEB2002ABA
:1011A0000BD083070AD0032702E01C001F4206D0A1
:1011B000013A631C2670002AF7D1F0BD0300032A10
:1011C00023D9FF2529400C040D0625430D430902B0
:1011D0000D43111F89088C466446191DA700CF19BD
:1011E00000E004311D600C000B008F42F9D1634612
:1011F000511F9B00C91A9307DFD026700029DCD04D
:1012000066700129D9D0A670D7E71C00511EF4E7FB
:1012100030B5531E04000020002A05D10CE0002840
:1012200006D1A81A013B07D325780A789542F6D152
:1012300001340131013BF7D230BDC046F0B5C6469E
:101240000400884600B5814205D3FFF749FF20001E
:1012500080BCB846F0BD10188E1805003300002A77
:10126000F5D037000743F90711D501239C4602E06A
:10127000434610199E18731E451E1878013A2870AF
:10128000002AE4D01F0060462F433842F0D1012AE3
:1012900039D0B90735D50227981AAD1A8318023B01
:1012A000A9181E880239023A0E80012A30D91E0080
:1012B0000E433742F2D1032A27D9101F80081D1F81
:1012C00080002D1ACE1A181FF318191F03680B601F
:1012D00003008542F7D103231A40551E002AB6D0D9
:1012E000431E1A784B1E1A70002DB0D0831E1A7838
:1012F0008B1E1A70012DAAD00338037803390B70A6
:10130000A5E72900D7E7012229001800551EE5E7C7
:101310000D002900F9E7C04604DF704730B597B0EB
:101320000C002822002103900CA8FFF735FF0223B0
:101330000B930BAB07932C23089303AB0993042364
:101340000121802005940A93069300F001FD041EFC
:101350000FDD0123019305AB00930021022307AAAF
:1013600000F0F8FC0500200000F000FD280017B098
:1013700030BD84256D42F9E730B591B004002822D4
:10138000002106A8FFF708FF05230121059380200F
:10139000273305AD07940395049300F0D9FC041E90
:1013A0000EDD002300210193009303AA013300F016
:1013B000D1FC0500200000F0D9FC280011B030BDA0
:1013C00084256D42F9E7C04670B592B007AD0C00B8
:1013D00006002C2200212800FFF7DEFE2C2301212D
:1013E00004938020143B059409960395069300F01E
:1013F000AFFC041E0FDD0123019305AB0093002118
:10140000012303AA00F0A6FC0500200000F0AEFCBA
:10141000280012B070BD84256D42F9E7F0B5C646CC
:1014200000B592B0140006000D00282200211F0014
:1014300008A807AB9846FFF7AFFE0723079343467C
:101440009E6003932C23012180200694049305952C
:1014500000F07EFC041E13DD0123019305AB009315
:101460000021012303AA00F075FC069B05003B60E8
:10147000200000F07BFC280012B080BCB846F0BD14
:1014800084256D42F7E7C04670B592B004000E00A7
:101490002822002108A8FFF77FFE0C23079323686A
:1014A00001210B932C238020049307AD283B059446
:1014B0000A960395069300F04BFC041E0FDD0123F2
:1014C000019305AB00930021012303AA00F042FC25
:1014D0000500200000F04AFC280012B070BD8425F1
:1014E0006D42F9E7F0B595B004000E00150000213B
:1014F00028220AA8FFF750FE0D2309932368012133
:101500000D932C238020069309AF283B0394059765
:1015100007960895049300F01BFC041E0FDD0123C1
:10152000019303AB00930021022305AA00F012FCF3
:101530000500200000F01AFC280015B0F0BD84253D
:101540006D42F9E7F0B5C64600B594B004000E0050
:101550001500002128221F000AA809AB9846FFF7B2
:101560001BFE0E2309934346226803931A612C2322
:10157000012104938020283B059406930796089543
:1015800000F0E6FB041E13DD0223019305AB00937C
:101590000021012303AA00F0DDFB089B05003B604E
:1015A000200000F0E3FB280014B080BCB846F0BD7A
:1015B00084256D42F7E7C046F0B597B005000E00F0
:1015C0001700002128220CA81C00FFF7E5FD2323AB
:1015D0000B931C9B0D950E96002B5ED01E9B0793C4
:1015E0001F9B08931C9B09931D9B0A93209B0393AD
:1015F000219B0493102C53D8002F14D0002C11D011
:10160000631E072B4FD9BB074DD13A68A30811922F
:101610007A681292022B27D0BA681392042B23D136
:10162000FB68149315940BAB05932C2301218020A8
:10163000069300F08DFB061E00DCAFE01C9B002132
:101640005A1E93410122019203AA0233009205AA75
:1016500000F080FB049A229B04001A60300000F026
:1016600085FB200017B0F0BD0322230093432242E4
:10167000D8D0F95C0BAAD21811765A1C9442D1D951
:101680000BA98918BA5C02330A769C42CAD90BAA04
:10169000D218FB5C15941376C5E71D9B002B9DD0DB
:1016A00087246442DDE76A4644213B785218137070
:1016B000012CB7D06A467B78013152181370022C86
:1016C000B0D06A46BB78013152181370032CA9D0F0
:1016D0006A46FB78013152181370042CA2D06A4676
:1016E0003B79013152181370052C9BD06A467B79E7
:1016F000013152181370062C00D193E76A46BB796A
:10170000013152181370072C00D18BE76A46FB7920
:10171000013152181370082C00D183E7684620234A
:101720003A7A1F394018C254092C00D17AE768462A
:101730007A7A01334018C2540A2C00D172E7684605
:10174000BA7A01334018C2540B2C00D16AE76846BC
:10175000FA7A01334018C2540C2C00D162E7684673
:101760003A7B01334018C2540D2C00D15AE7684629
:101770007A7B01334018C2540E2C00D152E76846E0
:10178000BA7B01334018C254102C00D04AE7684697
:10179000FA7B01334118CA54159444E78424644207
:1017A0005FE7C046F0B597B005000E0017000021B6
:1017B00028220CA81C00FFF7EFFC24230B931C9B92
:1017C0000D950E96002B5ED01E9B07931F9B0893D2
:1017D0001C9B09931D9B0A93209B0393219B0493BD
:1017E000102C53D8002F14D0002C11D0631E072BBF
:1017F0004FD9BB074DD13A68A30811927A6812926B
:10180000022B27D0BA681392042B23D1FB681493C0
:1018100015940BAB05932C2301218020069300F037
:1018200097FA061E00DCAFE01C9B00215A1E934174
:101830000122019203AA0233009205AA00F08AFA5B
:10184000049A229B04001A60300000F08FFA2000F6
:1018500017B0F0BD0322230093432242D8D0F95C95
:101860000BAAD21811765A1C9442D1D90BA9891807
:10187000BA5C02330A769C42CAD90BAAD218FB5C26
:1018800015941376C5E71D9B002B9DD087246442D9
:10189000DDE76A4644213B7852181370012CB7D01B
:1018A0006A467B78013152181370022CB0D06A4618
:1018B000BB78013152181370032CA9D06A46FB780B
:1018C000013152181370042CA2D06A463B790131C1
:1018D00052181370052C9BD06A467B79013152183F
:1018E0001370062C00D193E76A46BB790131521878
:1018F0001370072C00D18BE76A46FB79013152182F
:101900001370082C00D183E7684620233A7A1F39E8
:101910004018C254092C00D17AE768467A7A01331C
:101920004018C2540A2C00D172E76846BA7A0133D3
:101930004018C2540B2C00D16AE76846FA7A01338A
:101940004018C2540C2C00D162E768463A7B013340
:101950004018C2540D2C00D15AE768467A7B0133F7
:101960004018C2540E2C00D152E76846BA7B0133AE
:101970004018C254102C00D04AE76846FA7B013365
:101980004118CA54159444E7842464425FE7C04672
:10199000F0B5C64600B594B080460F001500002192
:1019A00028220AA81C00FFF7F7FB2F2309934346C0
:1019B0000B932C2306931A9B012103931B9B8020DE
:1019C00009AE08940C9705960795049300F0C0F9AA
:1019D000041E14DD0123019303AB009305AA022327
:1019E000002100F0B7F9049A1C9B05001A60200042
:1019F00000F0BCF9280014B080BCB846F0BD8425C6
:101A00006D42F7E730B593B004002822002108A802
:101A1000FFF7C2FB3B230793236801210B932C2381
:101A20008020049307AD283B05940395069300F0AE
:101A30008FF9041E0FDD0123019305AB00930021F4
:101A4000012303AA00F086F90500200000F08EF9BA
:101A5000280013B030BD84256D42F9E770B592B00F
:101A600004000E002822002108A8FFF795FB33236D
:101A70000793236801210B932C238020049307AD47
:101A8000283B05940A960395069300F061F9041E1D
:101A90000FDD0123019305AB00930021012303AA6D
:101AA00000F058F90500200000F060F9280012B09D
:101AB00070BD84256D42F9E7F0B5C64600B592B019
:101AC0000700884615000021282208A81C00FFF7FF
:101AD00063FB36230793434607AEB3803B6801217F
:101AE0000B932C238020069403960493059500F015
:101AF0002FF9041E10DD002300210193009303AA97
:101B0000023300F027F90500200000F02FF928002B
:101B100012B080BCB846F0BD84256D42F7E7C046E0
:101B2000F0B595B0140005000E00282200210AA887
:101B3000FFF732FB3A230993336801210D932C23DD
:101B40000693143B08938020143B09AF0394059738
:101B50000795049300F0FCF8041E0FDD01230193A8
:101B600003AB00930021022305AA00F0F3F805005F
:101B7000200000F0FBF8280015B0F0BD84256D4270
:101B8000F9E7C04630B58BB00290039102A90491E9
:101B9000069308210EAB08930423059170200739A2
:101BA0000792099300F0D4F8041E0EDD00230021F3
:101BB0000193009304AA033300F0CCF80500200041
:101BC00000F0D4F828000BB030BD84256D42F9E751
:101BD00070B58CB0039204AA08920822099203AA55
:101BE0000A920422119E0B92109A0490059106927B
:101BF0000793002E1AD00121712000F0A9F8041ECD
:101C000011DD0123019306AB0021009308AA0223F2
:101C100000F0A0F80500200000F0A8F8079B336052
:101C200028000CB070BD84256D42F9E787256D4210
:101C3000F6E7C04630B589B002AB049308230290A2
:101C4000039105930121043372200692079300F05B
:101C50007FF8041E0FDD0123019306AB00930021E2
:101C6000012304AA00F076F80500200000F07EF8B9
:101C7000280009B030BD84256D42F9E730B587B042
:101C800002AB049308230290039101217320059372
:101C900000F05EF8041E0EDD002300210193009386
:101CA00004AA013300F056F80500200000F05EF8A9
:101CB000280007B030BD84256D42F9E730B587B004
:101CC00003AB04930423039001214220059300F009
:101CD0003FF8041E0FDD002308490193009304AA76
:101CE000013300F037F80500200000F03FF8002D28
:101CF00001DB280000E0012007B030BDF303000045
:101D000030B589B003AB04930423039007914220BC
:101D100001210593069200F01BF8041E10DD01233B
:101D2000019306AB00930849012304AA00F012F8BE
:101D30000500200000F01AF8002D01DB280000E06B
:101D4000012009B030BDC046F20300000DDF70472E
:101D50000CDF704700B585B00293079B0191039398
:101D600001A9069BFFF7F2FF05B000BD0EDF70472B
:101D700007DF70470FDF704711DF704713DF7047D1
:101D800014DF704717DF70470FB4F0B557464E4663
:101D9000DE464546E0B591B01AAE08CE9A4600231D
:101DA000079353461B780396002B01D100F01DFDCD
:101DB0000022B1460024160057460CE007AD621C15
:101DC0002C190137079223711F2A54D814000136A9
:101DD0003B78002B3CD0252BF0D17A78252A00D1F6
:101DE000CAE31300583BDBB2202B03D8C64A9B0042
:101DF000D3589F46002307AD98462B004546B04672
:101E00001E005B22631C3419336022711F2B0BD818
:101E1000BE4A0135525D002A12D01C00631C3419E1
:101E2000336022711F2BF3D90023202108A83360CF
:101E300006F06EFBB54A0135525D3368002AECD1DD
:101E40004646A84601371C003B784644002BC2D1C9
:101E5000B346002C04D0210008A806F059FB8344A7
:101E6000584611B0F0BCBB46B246A946A046F0BCED
:101E700008BC04B018470023202108A8079306F0E7
:101E800047FB079AA2E74B4604CB0021994604ABD7
:101E9000924698460023082205A80493FFF77CF990
:101EA0005346002B01DA00F065FC002307AD0093D8
:101EB0000A215046FEF7CAFF42463031CBB21370BA
:101EC0000A2150460193FEF73BFF53468346092BF8
:101ED00001D800F0A4FD0A21FEF7B8FF43463031D7
:101EE000597058460A21FEF72BFF53468346632B51
:101EF00001D800F0BFFD0A21FEF7A8FF43463031AC
:101F0000997058460A21FEF71BFFFA2383469B006F
:101F10009A4501D200F0B2FD0A21FEF797FF434631
:101F20003031D97058460A21FEF70AFF784B8346B4
:101F30009A4501D800F0ADFD0A21FEF787FF434620
:101F40003031197158460A21FEF7FAFE714B83466B
:101F50009A4501D800F0A4FD0A21FEF777FF434619
:101F60003031597158460A21FEF7EAFE6A4B834622
:101F70009A4501D800F09FFD0A21FEF767FF43460E
:101F80003031997158460A21FEF7DAFE634B8346D9
:101F90009A4501D800F093FD0A21FEF757FF43460A
:101FA0003031D97158460A21FEF7CAFE5C4B834690
:101FB0009A4501D800F08FFD0A21FEF747FF4346FE
:101FC0003031197258460A21FEF7BAFE554B9A4530
:101FD00001D800F084FD4346303058720A239A46F7
:101FE00043465344013B1A78631C2C192B60227121
:101FF0001F2B01D900F02AFC5246941E42462B6842
:10200000115D5A1CEB182A6019711F2A01D900F0C2
:1020100015FC002C72D05246D41E42462B68115D2E
:102020005A1CEB182A6019711F2A01D900F02BFCE9
:10203000002C63D05246141F42462B68115D5A1C77
:10204000EB182A6019711F2A01D900F039FC002C05
:1020500054D05246541F42462B68115D5A1CEB184F
:102060002A6019711F2A01D900F04FFC002C45D0BD
:102070005246941F42462B68115D5A1CEB182A6089
:1020800019711F2A01D900F05DFC002C36D0524690
:10209000D41F42462B68115D5A1CEB182A60197137
:1020A0001F2A01D900F070FC002C27D0544642466C
:1020B0002B68083C115D5A1CEB182A6019711F2A05
:1020C00001D900F07CFC002C18D0544642462B6805
:1020D000093C115D5A1CEB182A6019711F2A01D99D
:1020E00000F080FC002C09D02B6801995A1CEB18D9
:1020F0002A6019711F2A01D900F0AFFC009B2C68DF
:102100005344F618023763E6142B0010002B00101E
:102110000F2700009F8601003F420F007F96980026
:10212000FFE0F505FFC99A3B4B4620CB08229946B4
:1021300004AB98460023002105A80493FFF72CF870
:10214000524A0F2319002940515C8A4641465046A5
:102150000870290900D1BBE340461940515C417029
:10216000290A00D1C0E31940515C8170290B00D1CC
:10217000D3E31940515CC170290C01D100F0F3FB8D
:102180001940515C0171290D01D100F005FC194085
:10219000515C4171290E01D100F020FC0B40D35C51
:1021A0002D0F837101D100F036FC535DC3710823FC
:1021B0009B4643465B44013B1A7807AD631C2C19D0
:1021C000079322711F2B00D9ECE25A46941E424617
:1021D0002B68115D5A1CEB182A6019711F2A00D94F
:1021E000D9E2002C4ED05A46D41E42462B68115DCF
:1021F0005A1CEB182A6019711F2A00D9D9E2002C49
:1022000040D05A46141F42462B68115D5A1CEB18E9
:102210002A6019711F2A00D9D2E2002C32D05A4606
:10222000541F42462B68115D5A1CEB182A60197125
:102230001F2A00D9CBE2002C24D05A46941F4246D4
:102240002B68115D5A1CEB182A6019711F2A00D9DE
:10225000CFE2002C16D05A46D41F42462B68115D9F
:102260005A1CEB182A6019711F2A00D92BE1002C87
:1022700008D051462B685A1CEB182A6019711F2A86
:1022800000D9ABE22C685E440237A1E5982B001020
:102290004B4620CB0822994604AB984600230021E8
:1022A00005A80493FEF778FF0A212800FEF7CEFD6B
:1022B0003031CBB29A46434652460A2128001A7062
:1022C000FEF73EFD8346092D00D893E30A21FEF771
:1022D000BDFD43463031584659700A21FEF730FDA6
:1022E0008346632D00D8C2E30A21FEF7AFFD4346C3
:1022F0003031997058460A21FEF722FDFA238346B1
:102300009B009D4200D2BFE30A21FEF79FFD43469A
:102310003031D97058460A21FEF712FD9C4B834696
:102320009D4200D816E30A21FEF790FD4346303166
:10233000197158460A21FEF703FD964B83469D42CC
:1023400000D8AAE30A21FEF781FD434630315971D6
:1023500058460A21FEF7F4FC8F4B83469D4200D875
:10236000A6E30A21FEF772FD4346303199715846C3
:102370000A21FEF7E5FC894B83469D4200D8A4E381
:102380000A21FEF763FD43463031D97158460A21D0
:10239000FEF7D6FC824B83469D4200D898E30A2183
:1023A000FEF754FD43463031197258460A21FEF7B4
:1023B000C7FC7C4B9D4200D895E3434630305872B1
:1023C0000A239B4643465B44013B1A7807AD631CD6
:1023D0002C19079322711F2B00D946E25A46941EEE
:1023E00042462B68115D5A1CEB182A6019711F2A8E
:1023F00000D91CE2002C00D144E75A46D41E4246C4
:102400002B68115D5A1CEB182A6019711F2A00D91C
:1024100032E2002C00D135E75A46141F42462B68A1
:10242000115D5A1CEB182A6019711F2A00D940E26D
:10243000002C00D126E75A46541F42462B68115DF6
:102440005A1CEB182A6019711F2A00D94FE2002C80
:1024500000D117E75A46941F42462B68115D5A1C5B
:10246000EB182A6019711F2A00D95DE2002C00D1F7
:1024700008E75A46D41F42462B68115D5A1CEB18D8
:102480002A6019711F2A00D977E2002C00D1F9E6E1
:102490005C4642462B68083C115D5A1CEB182A60CA
:1024A00019711F2A00D992E2002C00D1EAE65C469D
:1024B00042462B68093C115D5A1CEB182A601971C1
:1024C0001F2A00D8D3E60023202108A82B6006F09D
:1024D0001FF8CCE64B4604CB924612789946002A68
:1024E00000D10FE6002307AD984629003B00454682
:1024F000B0460E0057469A46631C34193360227169
:102500001F2B0AD801357A5D002A11D01C00631CEC
:102510003419336022711F2BF4D90023202108A81D
:102520000135336005F0F4FF7A5D3368002AEDD1A0
:1025300046465746A8461C004644023748E44B46E8
:1025400004CB07AD9946631C2C19079322711F2BEE
:1025500000D955E11C000136023739E44B4620CB47
:102560000822994604AB98460023002105A804934D
:10257000FEF712FE0C4AE4E507AD621C2C19079227
:1025800023711F2A00D943E11400013602371FE4EA
:102590000F2700009F8601003F420F007F969800A2
:1025A000FFE0F505FFC99A3BA82B00100023DC4A89
:1025B00098469246320007AD464630339046621C3C
:1025C0002C192A6023711F2A0BD8534601369B5DB4
:1025D000002B11D02C68621C2C192A6023711F2A31
:1025E000F3D90023202108A82B6005F091FF534662
:1025F00001369B5D002BEDD14346B0461E004B4695
:1026000010CB4644994604AB98460023082200218B
:1026100005A80493FEF7C0FD0F231900C14A21400D
:10262000515C8A46414650460870210900D102E2B9
:1026300040461940515C4170210A00D115E2194011
:10264000515C8170210B00D11CE21940515CC170BA
:10265000210C00D11BE21940515C0171210D00D108
:1026600022E21940515C4171210E00D11EE20B4063
:10267000D35C240F837100D125E2135D0824C3715C
:1026800043461B19013B19782B685A1CEB182A602A
:1026900019711F2A00D9E1E0A31E9B4643465A4602
:1026A000995C2B685A1CEB182A6019711F2A00D9F3
:1026B000B6E05B46002B58D0E31E9B4643465A4685
:1026C000995C2B685A1CEB182A6019711F2A00D9D3
:1026D000E1E05B46002B48D0231F9B4643465A4609
:1026E000995C2B685A1CEB182A6019711F2A00D9B3
:1026F000D8E05B46002B38D0631F9B4643465A46C2
:10270000995C2B685A1CEB182A6019711F2A00D992
:10271000F4E05B46002B28D0A31F9B4643465A4655
:10272000995C2B685A1CEB182A6019711F2A00D972
:1027300001E15B46002B18D0E31F9B4643465A46F7
:10274000995C2B685A1CEB182A6019711F2A00D952
:102750000CE15B46002B08D051462B685A1CEB1845
:102760002A6019711F2A00D922E1A61902372C68A4
:10277000FFF72EFB2D2207AD631C2C190793227146
:102780001F2B00D90CE152461C00012352429246F5
:102790000093FFF78DFB0023202108A82B6005F094
:1027A000B7FE1EE50023202108A8079305F0B0FE20
:1027B0000BE50023202108A82B6005F0A9FE1EE5EB
:1027C0000023202108A82B6005F0A2FE25E50023A8
:1027D000202108A82B6005F09BFE2CE5002320217A
:1027E00008A82B6005F094FE4CE500239B46FFF7FC
:1027F00037FB0023202108A82B6005F089FE28E57F
:102800000023202108A8079305F082FE079BA1E67C
:102810000023202108A8079305F07AFE079AB3E663
:102820000023202108A82B6005F072FE41E7002359
:10283000202108A82B6005F06BFEDBE5002320219A
:1028400008A82B6005F064FEFFF7E3FB00232021BE
:1028500008A82B6005F05CFEFFF7CEFB00232021CB
:1028600008A82B6005F054FE16E70023202108A8D5
:10287000079305F04DFEB1E50023202108A82B6049
:1028800005F046FEC5E50023202108A82B6005F0D1
:102890003FFEFFF7CDFB0023202108A82B6005F0A9
:1028A00037FE16E70023202108A82B6005F030FE34
:1028B0001FE70023202108A82B6005F029FEB7E5BB
:1028C0000023202108A82B6005F022FEFFF7BFFBA4
:1028D000434607AD1A78631C2C19079322711F2BEE
:1028E0003BD801239B46CDE402239B4661E40023B1
:1028F000202108A82B6005F00BFEA8E5002320216D
:1029000008A82B6005F004FE03E70023202108A897
:102910002B6005F0FDFDFFF7A9FB03239B4648E470
:10292000FC2A0010982B00100023202108A82B60FF
:1029300005F0EEFD9AE50023202108A82B6005F0A4
:10294000E7FDF6E60023202108A82B6005F0E0FD56
:10295000FFF79BFB04239B4634E5079108A8202141
:1029600005F0D6FDBDE704239B4622E40023202189
:1029700008A82B6005F0CCFDEBE60023202108A879
:102980002B6005F0C5FD80E50023202108A82B6001
:1029900005F0BEFDFFF788FB05239B46FFF709FC0A
:1029A0000023202108A8079305F0B2FD079BEAE663
:1029B0000023202108A82B6005F0AAFDD5E60023FE
:1029C000202108A82B6005F0A3FDFFF77CFB002366
:1029D000202108A82B6005F09BFD65E506239B469A
:1029E000FFF7E7FB0023202108A82B6005F090FDEE
:1029F000FFF778FB434607AD1A78631C2C19079341
:102A000022711F2B00D86CE70023202108A8079310
:102A100005F07EFD65E707239B46FFF7CAFB4346AB
:102A20001A78631C2C192B6022711F2B5ED801238E
:102A30009A46FFF763FB434618782B685A1CEB183D
:102A40002A6018711F2A01D801248EE6296008A87F
:102A5000202105F05DFD012487E60023202108A840
:102A60002B6005F055FDFFF749FB022408E6022321
:102A70009B46A7E402239A46FFF7B2FA03239A463D
:102A8000FFF7AEFA0324FBE503239B469AE40424F4
:102A9000F6E504239A46FFF7A3FA05239B4691E443
:102AA00005239A46FFF79CFA0524E9E50624E7E5A5
:102AB00006239B4686E406239A46FFF791FA0723EE
:102AC0009A46FFF78DFA0724DAE507239B4679E457
:102AD00008239B4676E408239A46FFF781FA0923E8
:102AE0009A46FFF77DFA09239B466BE400232021D9
:102AF00008A82B6005F00CFD99E7C046307800006F
:102B00005B556E737570706F727465642054616785
:102B10005D0000005C250010F41D0010F41D001085
:102B2000F41D0010F41D0010F41D0010F41D001021
:102B3000F41D0010F41D0010F41D0010F41D001011
:102B40003E250010861E0010F41D0010F41D00101C
:102B5000F41D0010F41D0010861E0010F41D00105E
:102B6000F41D0010F41D0010F41D0010F41D0010E1
:102B7000F41D0010AC250010F41D0010F41D001011
:102B8000D4240010F41D001090220010F41D001039
:102B9000F41D00102821001030313233343536371F
:102BA00038396162636465663031323334353637C3
:102BB000383941424344454600000000000000000F
:102BC000024A034BD358036000207047401C0108A1
:102BD000041C0000F0B5DE4657464E464546E0B5BB
:102BE000ABB000F079F9002806D02BB0F0BCBB46A2
:102BF000B246A946A046F0BD8021B348090209F0BB
:102C00001BFC1AF061FB00285ED10DF055FA00287C
:102C1000EBD12C22002113A8FEF7BEFAAB4F802186
:102C2000012009064042FFF7A3F8C3060AD5102089
:102C30001EA9FFF79FF8002849D11E9B002B0CDA34
:102C4000023347DAFFF79EF880210120090640424F
:102C5000FFF78EF8C306EAD4F4E7002BF2D11F9BEE
:102C60000021009300982C2313AAFFF785F8040095
:102C70002C281FD1139B0193402B1BD8202200210D
:102C800003A8FEF789FA202200210BA8FEF784FA98
:102C9000259B0093002B00D0FEE0249B0093002B8B
:102CA00000D0F3E0239B0093002B4BD1229B009399
:102CB000002B16D184235B4298461F9B4146180087
:102CC0000093FFF75DF8AAE7932040428DE7FFF7F6
:102CD00059F8B2E71F9B002118000093FFF750F846
:102CE0009DE713AB039301239A4604942999002985
:102CF00000D0C9E0289B0093002B00D0C2E0279BA6
:102D00000093002B58D1269B002B00D0CAE0209BBB
:102D100051460093009A6E4B03A8FA50019B6D4AEE
:102D20009B00D45800230BAAA0478046E02400252E
:102D3000674B6401002138003A59FD50FEF72CFA28
:102D40003D51BAE713AB039302239A46049403233D
:102D50009B46E0235B01012498461EAE03AD14E0C0
:102D6000B818891842468146B9501F9A210000922E
:102D700002000098FFF700F84B46AB60736901341E
:102D8000EB60043608355445B0D05A467369404666
:102D9000D91C91434246BA58801A8142E0D9002496
:102DA0004B4B21003800FC50FEF7F6F94346FC502F
:102DB0008D235B42984680E70226E02303205B01D7
:102DC000269DFA58EC1C984684439B1A9C424BD88B
:102DD000BB180B9343460C95279D1219EC1C84439A
:102DE0009B1A9C423DD8BB180D9312190E95022ECA
:102DF00016D04346289D9B1AEC1C84439C4230D835
:102E0000BB180F9312191095042E5AD14346CC1CAF
:102E100084439B1A9C4224D8BB1811931219129117
:102E2000E0235B01FA50209B51460093009A284B07
:102E300003A8FA50019B274A9B00D45833000BAAE1
:102E4000A047002480460BAD1F9B210000932A68F9
:102E50006B6800980134FEF791FF0835B442F3D156
:102E600064E7E0235B01FA500024194B210038008D
:102E7000FC50FEF791F9E0235B01FC508D235B428F
:102E800098461AE7032698E7042696E713AB0393C0
:102E9000032304949A465AE713AB03930423049440
:102EA0009A4654E7E020032440013A58D91CA14334
:102EB000801A8142D8D8B818012652180B900C936A
:102EC000AEE70600ACE7C046409C0008401C010885
:102ED000041C0000846F00108A2210B500210348F2
:102EE0005201FEF759F9002010BDC04648380108CC
:102EF0000023F0B583B0060001A80D001400019373
:102F0000FFF75EFE00282DD12B68002B4AD1002C44
:102F10004BD0274B20601968002926D08A229200C6
:102F20009A58002A20D08A22D2009A58002A31D0FA
:102F3000CF22D2009A58002A2ED08A2212019A5803
:102F4000002A25D01B4A9A58002A27D0CF221201E6
:102F50009A58002A24D0184A07219A58002A04D0E7
:102F60008520404203B0F0BD01210A0152189200B1
:102F700001275218D20094469F509F18019A0131A0
:102F80007A6062460C329B18BE6029602360E9E7D4
:102F90000421EAE70221E8E70321E6E70521E4E767
:102FA0000621E2E789204042DCE787204042D9E75A
:102FB00048380108C80A0000180F0000F0B5C646DE
:102FC000002300B582B00568804601A80193FFF791
:102FD000F7FD071E25D1013D072D2BD82C016319C4
:102FE0009B00164E5B19DB00F258012A22D1F21821
:102FF0005168019881421DD10C33F018936800226A
:10300000013B032B12D90021FEF7C6F800234246EC
:103010006419A4006519ED0073517519AB606B60FC
:103020001360380002B080BCB846F0BD044A9B0073
:103030009A58E8E787277F42F3E7C04648380108F7
:1030400088700010002370B582B0050001A80E0042
:1030500014000193FFF7B4FD002816D1721E072A51
:1030600015D81101891889000A4E8918C9008B5991
:10307000012B0CD173189A68AA4208D15B68019A97
:10308000934204D10C318919216002B070BD8920AE
:103090004042FAE748380108F0B5C646140000225D
:1030A00000B582B00192012905D08120404202B0D2
:1030B00080BCB846F0BD013B012BF6D843682C2BF1
:1030C000F3D16368042BF0D1036826681D69E368B7
:1030D000A76829000120356001AA9846FFF7B2FFD2
:1030E0000028E4D1230042463900019835600C33B2
:1030F0000BF064FFDBE7C04630B5002483B0013934
:103100000194012901D8012B03D08120404203B052
:1031100030BD43682C2BF8D15368042BF5D10368DC
:10312000846819691368C56801AA01201960FFF74E
:1031300089FF0028EBD12A00210001980BF014FF31
:10314000E5E7C046F0B5002485B00094012904D01D
:1031500081246442200005B0F0BD012BF8D15368F2
:10316000042BF5D143682C2BF2D10368166819693A
:103170009D68019128000021DF6800F09FFB041E7C
:10318000E8D16A46012001A9FFF7B2FE041EE1D191
:10319000019B2800336002A900F0BEFB041E07D18A
:1031A0003B000299039A00980BF0D0FE041ED1D088
:1031B0003000FFF703FFCDE7F0B5002485B00094A1
:1031C000012904D081246442200005B0F0BD012B08
:1031D000F8D15368042BF5D143682C2BF2D1036846
:1031E000166819699D68019128000021DF6800F0C8
:1031F00065FB041EE8D16A46012001A9FFF778FEAD
:10320000041EE1D1019B2800336002A900F084FB79
:10321000041E07D13B000299039A00980BF09DFE13
:10322000041ED1D03000FFF7C9FECDE7F0B5CE4681
:103230004746002480B5013985B015000394012963
:1032400024D8013B012B21D843682C2B1ED1536875
:10325000042B1BD10368866819699368C768984670
:10326000D3680120994613681960D46003AAFFF758
:10327000E9FE00280CD14B460C3500933A0043463A
:103280003100039801950BF0D1FE01E0812040420E
:1032900005B0C0BCB946B046F0BDC046F0B5C646A4
:1032A0001400002200B582B00192012906D08125C8
:1032B0006D42280002B080BCB846F0BD013B012B36
:1032C000F5D843682C2BF2D16368042BEFD1036847
:1032D00026681969E368A76801203160E26001AAE5
:1032E0009846FFF7AFFE051EE3D1230042463900A2
:1032F00001980C330BF050FF051EDAD13000FFF7B8
:103300005DFED6E730B5002483B00194012904D0D6
:1033100081246442200003B030BD012BF8D1436802
:103320002C2BF5D15368042BF2D103681568196969
:103330000120296001AAFFF785FE0028EAD1019843
:103340000BF016FD04002800002C03D1FFF736FE19
:103350000400DFE7FFF732FEDCE7C046862040428C
:103360007047C046862040427047C04670B5002472
:1033700082B00094012904D081246442200002B06C
:1033800070BD012BF8D15368042BF5D143682C2B69
:10339000F2D1016815680B69CE6801936A46032073
:1033A0002B6001A9FFF7A4FD041EE7D1019B3100AA
:1033B00000982B600AF074FC041EDFD02800FFF791
:1033C000FDFDDBE730B5002483B00139019401290C
:1033D00001D8012B03D08120404203B030BD4368A7
:1033E0002C2BF8D15368042BF5D103688468196934
:1033F0001368C56801AA03201960FFF723FE00289F
:10340000EBD12A00210001980AF08CFCE5E7C046C8
:10341000F0B5C6461400002200B582B00192012921
:1034200006D081256D42280002B080BCB846F0BDB0
:10343000013B012BF5D843682C2BF2D16368042B98
:10344000EFD1036826681969E368A7680320316033
:10345000E26001AA9846FFF7F5FD051EE3D12300BF
:103460004246390001980C330AF064FC051EDAD19B
:103470003000FFF7A3FDD6E7F0B5002483B0013993
:103480000194012901D8012B04D081246442200039
:1034900003B0F0BD43682C2BF7D15368042BF4D153
:1034A0000368156819698668C76801AA032029603E
:1034B000FFF7C8FD041EEAD13A00310001980AF076
:1034C00045FD041EE3D12800FFF778FDDFE7C04685
:1034D00030B5002483B00194012904D081246442D2
:1034E000200003B030BD012BF8D143682C2BF5D15F
:1034F0005368042BF2D10368156819690320296009
:1035000001AAFFF79FFD0028EAD101980AF076FB97
:1035100004002800002C03D1FFF750FD0400DFE772
:10352000FFF74CFDDCE7C04610B5002482B00094E4
:103530000194012903D08120404202B010BD012B2B
:10354000F9D143682C2BF6D15368042BF3D10368CF
:10355000146803206A461969FFF774FD0028ECD14E
:10356000210001AA0330FFF7C3FC0028E5D101992F
:1035700000980AF09BFEE0E730B5013983B00129DD
:1035800001D8012B03D98120404203B030BD4368EC
:103590002C2BF8D103685468DD6881681368C06813
:1035A00000940024043214600192020028000AF002
:1035B000ECFCEAE710B5013982B0022901D8002BF2
:1035C00003D08120404202B010BD43682C2BF8D1BB
:1035D00004680369C2688168E4684069009020005B
:1035E0000AF039FEEFE7C046F0B5C646002400B544
:1035F00084B00094012906D081246442200004B0E4
:1036000080BCB846F0BD012BF6D15368042BF3D132
:1036100043682C2BF0D1056800212B69AE6801931B
:10362000EB6830009846176800F048F9041EE5D1B1
:103630002B696A4602203B6001A9FFF759FC041E72
:10364000DCD1019B30003B6002A900F065F9041E4B
:1036500007D143460299039A00980AF08BFF041E93
:10366000CCD03800FFF7AAFCC8E7C046F0B5C64684
:10367000002400B584B00094012906D0812464425E
:10368000200004B080BCB846F0BD012BF6D15368D1
:10369000042BF3D143682C2BF0D1056800212B6952
:1036A000AE680193EB6830009846176800F006F9A1
:1036B000041EE5D12B696A4602203B6001A9FFF791
:1036C00017FC041EDCD1019B30003B6002A900F016
:1036D00023F9041E07D143460299039A00980AF081
:1036E00050FF041ECCD03800FFF768FCC8E7C04686
:1036F00030B5002483B001390194012901D8012B90
:1037000003D08120404203B030BD43682C2BF8D158
:103710005368042BF5D10368846819691368C56878
:1037200001AA02201960FFF78DFC0028EBD12A00C6
:10373000210001980AF02CFFE5E7C046F0B5C64627
:103740001400002200B582B00192012906D0812523
:103750006D42280002B080BCB846F0BD013B012B91
:10376000F5D843682C2BF2D16368042BEFD10368A2
:1037700026681969E368A76802203160E26001AA3F
:103780009846FFF75FFC051EE3D12300424639004F
:1037900001980C330AF02CFF051EDAD13000FFF738
:1037A0000DFCD6E7F0B5002483B00139019401295E
:1037B00001D8012B04D081246442200003B0F0BD65
:1037C00043682C2BF7D15368042BF4D10368156898
:1037D00019698668C76801AA02202960FFF732FCD0
:1037E000041EEAD13A00310001980AF032FF041EAB
:1037F000E3D12800FFF7E2FBDFE7C04630B5002445
:1038000083B00194012904D081246442200003B0D4
:1038100030BD012BF8D143682C2BF5D15368042B14
:10382000F2D10368156819690220296001AAFFF71F
:1038300009FC0028EAD101980AF068FD040028007C
:10384000002C03D1FFF7BAFB0400DFE7FFF7B6FB5C
:10385000DCE7C046862040427047C0468620404292
:103860007047C046F0B506000F0015008BB0002869
:1038700020D0002A1ED06C46002128222000FDF70F
:103880008BFC2A000BCC0BC20BCC0BC20BCC0BC29B
:10389000002023681360B38A2B8033686B60F36861
:1038A0002B61B3686B6133696B807368AB60EF60E9
:1038B0000BB0F0BD81204042FAE7C046002370B54E
:1038C00082B0050001A80E000193FFF779F90028E6
:1038D0000DD100220E4B1C79002C02D01968A94290
:1038E00007D001320C33202AF5D18820404202B0A3
:1038F00070BD530007499B189B005B5801998B4290
:1039000003D1002EF3D03260F1E785204042EEE78C
:103910008C49010888490108002330B583B00500AF
:1039200001A80C000193FFF74BF9002804D1002CEB
:1039300004D0019B2560636003B030BD812040420C
:10394000FAE7C0460023074A03E001330C32202B7C
:1039500005D011780029F8D10360002070478D2030
:103960004042FBE79049010830B504000D0083B0E8
:103970001F2810D801A8FFF723F9002809D16300F8
:10398000064A1C19019BA400A35001231419656069
:10399000237203B030BD87204042FAE7884901080E
:1039A000862040427047C046862040427047C0464D
:1039B000F0B5CE46474680B5023999B0012901D805
:1039C000012B06D08120404219B0C0BCB946B04698
:1039D000F0BD43682C2BF5D1C368182BF2D1536886
:1039E000042BEFD1436985680769166800212822F6
:1039F00004A89846FDF7D0FB002300240393224B34
:103A000003E001340C33202C3BD01A78002AF8D183
:103A100003A8FFF7D5F80028D6D1039B9946002DBF
:103A2000D0D0282200210EA8FDF7B6FB28220EA92F
:103A300004A8FDF755FBAB8A02AA13812B68390055
:103A40000593EB6804A80893AB6809932B6953812D
:103A50006B684246019306934B4607930EAB0AF000
:103A600025F80E9B33600028AED16300074A1C196D
:103A7000039BA400A35033681419636001232372CD
:103A8000A2E78D2040429FE790490108884901083C
:103A900070B584B0022903D08120404204B070BDCB
:103AA000012BF9D143682C2BF6D1C368042BF3D139
:103AB0005368042BF0D1836800241D6816681A4BE4
:103AC00003E001340C33202C25D01A78002AF8D1D9
:103AD00001A8FFF775F80028E0D1C02380220199E2
:103AE0001B06EB1802950391D205934216D32800CA
:103AF00002AA0CF068FC029B33600028CED1630060
:103B00000A4A1C19019BA400A3503368141963606E
:103B100001232372C2E78D204042BFE73200280014
:103B200000F04EFBBAE7C0469049010888490108F9
:103B300070B51C0082B0012903D08120404202B040
:103B400070BD002BF9D143682C2BF6D10368684671
:103B50009D680094FFF734F80028F0D1114B1A79D2
:103B6000002A02D01A68954206D001340C33202C6A
:103B7000F5D188204042E2E7852063001C190A4EF7
:103B8000A400A159009B40429942D8D12800009539
:103B900001910CF02DFC0028D1D1A05134196060A6
:103BA0002072CCE78C4901088849010870B51C00D7
:103BB00082B0012903D08120404202B070BD002BA9
:103BC000F9D143682C2BF6D1036868469D680094B0
:103BD000FEF7F6FF0028F0D1114B1A79002A02D027
:103BE0001A68954206D001340C33202CF5D1882078
:103BF0004042E2E7852063001C190A4EA400A15947
:103C0000009B40429942D8D128000095019109F0CB
:103C10003EFE0028D1D1A051341960602072CCE75B
:103C20008C4901088849010870B590B0012904D079
:103C300081246442200010B070BD012BF8D143688C
:103C40002C2BF5D15368182BF2D10368002116688C
:103C500006A828229D68FDF79FFA002304A8049374
:103C6000FEF7AEFF041EE5D10022204B1979002992
:103C700002D019688D4206D001320C33202AF5D1CA
:103C800088246442D6E7852453009A18184B920082
:103C9000D358049A64429342CCD1002303A80393DF
:103CA000FEF78EFF041EC5D1039B2800190006AA4B
:103CB0000495059309F03EFE041EBBD1002EB7D03B
:103CC000182200213000FDF767FA02AB1B8AB3828D
:103CD000079B33600A9BF3600B9B0193B36002ABBD
:103CE0005B8A3361089B7360A4E7C0468C49010876
:103CF0008849010870B598B0012904D08124644234
:103D0000200018B070BD012BF8D143682C2BF5D1E1
:103D10005368182BF2D10021156804A82822FDF75A
:103D20003BFA03A8FEF74CFF041EE9D1039E002DC9
:103D3000E4D0282200210EA8FDF72EFA0EA9282291
:103D400004A8FDF7CDF9AB8A02AA13812B6804A859
:103D50000593EB680893AB6809932B6953816B68F3
:103D60000796069309F0BAFD182200212800FDF7F6
:103D700013FA02AB1B89AB82059B2B60089BEB609F
:103D8000099B0193AB6002AB5B892B61069B6B6067
:103D9000B6E7C046F0B5140085B0012903D08120F4
:103DA000404205B0F0BD012BF9D843682C2BF6D169
:103DB000036802A89D680023166857680293FEF7FF
:103DC000FFFE0028EDD10022104B1979002902D006
:103DD00019688D4206D001320C33202AF5D1882093
:103DE0004042DEE7852053009A18094B9200D158D3
:103DF000029B40429942D4D104343B003200280057
:103E000000940295039109F015FECAE78C49010858
:103E100088490108F0B5140085B0012903D081203C
:103E2000404205B0F0BD012BF9D843682C2BF6D1E8
:103E3000036802A89D680023166857680293FEF77E
:103E4000BFFE0028EDD10022174B1979002902D0BE
:103E500019688D4206D001320C33202AF5D1882012
:103E60004042DEE7852053009A18104B9200D35849
:103E7000029A40429342D4D128000295039300F065
:103E80007BF9002808D104343B00320002980399E2
:103E9000009409F0EDFDC4E73A0031002800231D2D
:103EA00000F01CFABDE7C0468C49010888490108AA
:103EB00070B51C0082B0012903D08120404202B0BD
:103EC00070BD002BF9D143682C2BF6D103686846EE
:103ED0009D680094FEF774FE0028F0D1114B1A790A
:103EE000002A02D01A68954206D001340C33202CE7
:103EF000F5D188204042E2E7852063001C190A4E74
:103F0000A400A159009B40429942D8D128000095B5
:103F100001910CF085FA0028D1D1A05134196060CC
:103F20002072CCE78C49010888490108F0B5CE46DB
:103F3000474680B59BB0022907D081246442200007
:103F40001BB0C0BCB946B046F0BD012BF5D14368EB
:103F50002C2BF2D15368042BEFD1C368182BECD172
:103F6000036887689E6813680021282206A898467F
:103F7000FDF712F9002300250393394B03E00135C7
:103F80000C33202D3AD01A78002AF8D103A8FEF776
:103F900017FE041ED3D1039B9946002FCDD02822B3
:103FA000002110A8FDF7F8F8282210A906A8FDF7AF
:103FB00097F8BB8A02AA13823B6810A80793FB6894
:103FC0000A93BB680B933B6953827B6810940193FF
:103FD00008934B460993FEF7F3FD041EAFD1002270
:103FE000204B1979002902D019688E4209D001327C
:103FF0000C33202AF5D188246442A0E78D24644242
:104000009DE7852453009A18174F9200D359109AB0
:104010006442934200D092E7002304A80493FEF781
:10402000CFFD041E00D08AE7049B06AA119330003E
:1040300004AB0499109609F06AFD4346049A041EE5
:104040001A6000D07BE76B00039A5B199B00DA5182
:1040500042461268FB185A6001221A726FE7C04686
:10406000904901088C49010888490108F0B599B0C8
:10407000022903D08120404219B0F0BD012BF9D1B3
:1040800043682C2BF6D1C368182BF3D15368042B4B
:10409000F0D1156886682822002104A8FDF77CF875
:1040A000002300240393204B03E001340C33202C25
:1040B00037D01A78002AF8D103A8FEF781FD00282E
:1040C000DAD1039F002ED5D0282200210EA8FDF7BB
:1040D00063F828220EA904A8FDF702F8B38A02AA01
:1040E000138133680EA90593F36804A80893B36895
:1040F00009933369538173680797019306930BF013
:1041000089FF0E9B2B600028B6D16300074A1C195B
:10411000039BA400A3502B6814196360012323722E
:10412000AAE78D204042A7E7904901088849010885
:1041300010B504008CB02822002102A8FDF72CF84D
:1041400069462000FFF7E8FB03000020002B01D0A8
:104150000CB010BD0098019902AA09F0EBFB0028F1
:1041600005D0200019F010FE19F092FDF0E702A82A
:1041700009F0B4FBF5E7C04610B504008CB0282266
:10418000002102A8FDF708F869462000FFF7C4FBEC
:1041900003000020002B01D00CB010BD0098019945
:1041A00002AA09F0C7FB002805D0200019F0ECFD99
:1041B00019F08AFEF0E702A809F090FBF5E7C04687
:1041C00070B5A8B0040004900591150000212822C4
:1041D0000DA8FCF7E1FF442320000C9319F058FDD3
:1041E00000284DD008A8FFF7ADFB002801D028B06B
:1041F00070BD20000AAA09A919F070FE0028F6D1A6
:1042000002AB9C4616260CAB66440093310020009E
:1042100017AB0BAA19F0D8FE0028E8D1099B31880A
:1042200011930A9B1293159B0393002B25D0002317
:1042300000220DA809F05DFB0B9B134A934200D9A5
:10424000124B02AAD38500230E930F93059B17A947
:10425000039310930C9A04AB0DA809F027FC049962
:1042600029600028C3D10898FFF77EFB0028BED143
:104270002100286819F01AFDB9E702AB9985DBE740
:104280008C204042B3E7C046F8FF0000FFFF00006B
:1042900070B51E000C00150084B019F075FD0A9B66
:1042A0002A000293099B21000193089B009333008D
:1042B00019F01CFF04B070BD70B51E000C00150095
:1042C00082B019F061FD079B2A000193069B210033
:1042D0000093330019F084FF02B070BD70B5150073
:1042E0001E000C0019F050FD33002A00210019F0C7
:1042F000EFFF70BDF0B5DE4657464E464546E0B589
:10430000013914008FB0022901D8012B08D981206E
:1043100040420FB0F0BCBB46B246A946A046F0BD35
:1043200043682C2BF3D105680169AB6AAE68099329
:104330008368EF689846C3684069994613680A9194
:104340009A4653680B909B4600230021300053602F
:10435000FFF7B4FA0028DCD10CAA11003000FFF7F7
:10436000DBFA0028D5D1043407945C460694544601
:1043700005944C46049444460B980A99099A1835BA
:104380000290019100922B003A000C980D99039431
:104390000AF058FFBDE7C046F0B5DE4657464E4628
:1043A0004546E0B5013914008FB0022901D8012B30
:1043B00008D9812040420FB0F0BCBB46B246A946A6
:1043C000A046F0BD43682C2BF3D105680169AB6AA8
:1043D000AE6809938368EF689846C3684069994658
:1043E00013680A919A4653680B909B46002300215C
:1043F00030005360FFF762FA0028DCD10CAA1100EC
:104400003000FFF789FA0028D5D1043407945C46C0
:104410000694544605944C46049444460B980A99D5
:10442000099A18350290019100922B003A000C98DD
:104430000D9903940AF07AFFBDE7C04686204042FA
:104440007047C046862040427047C04686204042A2
:104450007047C046862040427047C0468620404292
:104460007047C046862040427047C0468620404282
:104470007047C046862040427047C0468620404272
:104480007047C046862040427047C046F0B5D646C9
:104490004F464646C0B50139140086B0012901D8FF
:1044A000012B07D98120404206B0E0BCBA46B14694
:1044B000A846F0BD43682C2BF4D1036887689D683B
:1044C000DE68C3680021984613682800994653683F
:1044D0009A46FFF7F3F90028E6D12800FFF728FEF7
:1044E00000280CD0534601934B46043400933A0005
:1044F0004346310028000294FFF7CAFED4E72800A3
:1045000004A9FFF709FA0028CED1534602934B467F
:10451000019343460434009332003B00049805990C
:1045200003940AF0CFF8BFE7F0B5CE46474680B512
:10453000013987B0022901D8002B06D081204042E2
:1045400007B0C0BCB946B046F0BD43682C2BF5D1CE
:10455000036886689C68DD680369C7689846436994
:10456000002120009946FFF7A9F90028E8D1200092
:10457000FFF7DEFD00280AD04B4601934346320088
:10458000009329003B002000FFF796FED8E72000AB
:1045900004A9FFF7C1F90028D2D14B460293434644
:1045A0002A00019304983300059900970AF0C8F98E
:1045B000C6E7C046F0B5DE4657464E464546E0B52E
:1045C0000139140095B0022901D8012B08D98120A6
:1045D000404215B0F0BCBB46B246A946A046F0BD6D
:1045E00043682C2BF3D1036800219D68DF68836842
:1045F00056689846C36806930369994643690AA8B2
:104600009A46136828229B46FCF7C6FD0021280025
:10461000FFF754F90028DCD1280008A9FFF77CF93E
:104620000028D6D1089809990AAA09F083F9002828
:10463000CFD102AB5B8C0AA8079302AB1D8C09F0AB
:104640004DF90F4B1D400F4B9D4211D05B4603931C
:10465000534602934B460193069B043400933A0061
:10466000434608980999059404960AF069FAB0E758
:10467000079B0733DB089E42E8D28A204042A8E726
:10468000FFCFFFFF01400000F0B5DE4657464E4623
:104690004546E0B5013914008BB0022901D8012B41
:1046A00008D9812040420BB0F0BCBB46B246A946B7
:1046B000A046F0BD43682C2BF3D1036887689D6842
:1046C000DE68C368002107930369984643692800A0
:1046D000994613689A4653689B46FFF7EFF80028FF
:1046E000E1D1280008A9FFF717F90028DBD15A46C5
:1046F0000492524603924A4602924246079B043471
:104700000192009332003B000898099905940AF041
:10471000A9FAC8E770B5002482B00094012904D03A
:1047200081246442200002B070BD012BF8D153688F
:10473000042BF5D143682C2BF2D103681668196954
:104740006A460191042001A9DD68FEF7D1FB041E31
:10475000E8D1019B3360084B9D4202D1009B1D6054
:10476000E0E7290000980BF073FA041EDAD030005D
:10477000FEF724FCD6E7C046000F00B030B583B08A
:10478000012903D08120404203B030BD012BF9D173
:1047900043682C2BF6D15368042BF3D10024036813
:1047A00015680420196901AA0194FEF74BFC002842
:1047B00001D02C60E8E7290001980AF0B9FFE3E78F
:1047C00010B582B0012903D08120404202B010BD53
:1047D000002BF9D142682C2AF6D102680420116915
:1047E000546901AA0193FEF72DFC0028EED12100A7
:1047F00001980AF0A7FFE9E7F0B5C64600B5013910
:1048000082B0012901D8002B06D081246442200007
:1048100002B080BCB846F0BD42682C2AF5D10268CF
:10482000866895881169C7686A4604200093FEF778
:1048300009FC041EEBD1009B98464246184B1268B7
:104840009A4207D03B003200290040460BF026FA7E
:104850000400DCE7134B9D421BD101A8FEF7B0F921
:10486000041ED4D13D1D2900012007F017FE434648
:104870009861002810D0042201A9FCF731FC4346BE
:104880009B693A00181D3100FCF72AFC4346DD61A4
:10489000BDE787246442BAE78D246442B7E7C04687
:1048A000000F00B00102000030B583B0012903D031
:1048B0008120404203B030BD012BF9D843682C2B36
:1048C000F6D130CA036801AA1969002304200193B4
:1048D000FEF7B8FB0028EDD12A00210001980AF06C
:1048E0003FFFE7E770B584B0012903D08120404243
:1048F00004B070BD002BF9D142682C2AF6D10268B1
:10490000002194689688200015690193FEF7D6FF70
:104910000028EDD1290001AA0430FEF793FB0028FE
:10492000E6D1200002A9FEF7F7FF0028E0D1310010
:10493000029A039B01980BF0B8F9D9E7F0B593B050
:10494000022903D08120404213B0F0BD012BF9D1E0
:1049500043682C2BF6D1C368182BF3D15368042B72
:10496000F0D1036800211D6900238668146808A837
:1049700028220393FCF710FC2900042003AAFEF769
:1049800061FB0028E0D105A8FEF7DCFF0028DBD1A1
:1049900004A8FEF715F90028D6D13000049908AA1A
:1049A000FEF760FF0028CFD10399194B0A689A429D
:1049B0000BD006AA08A80BF0EDF80028C4D1069980
:1049C00021600598FEF7D0FFBEE76B4682225B8C24
:1049D00092000733DE08934214D20D00CF69DD3513
:1049E000FF3588690023002239000196009518F0F0
:1049F00041FF002809D13200290006AB08A809F0C0
:104A000055F8DAE78D2040429EE7932040429BE72D
:104A1000000F00B030B583B0012904D08124644276
:104A2000200003B030BD012BF8D143682C2BF5D109
:104A30005368042BF2D1036815681C690023210018
:104A4000019304202C6001AAFEF7FCFA002823D170
:104A50002C60019C114B22689A4208D020000AF079
:104A6000DBFC041E13D02800FEF7A8FAD8E7A069E3
:104A7000002806D00021E269FCF78EFBA06907F050
:104A800015FD8722002120009200FCF785FB2800FD
:104A9000FEF794FA0400C3E70024C1E7000F00B05A
:104AA000F0B5C64600B5013986B0012901D8002B02
:104AB00005D08120404206B080BCB846F0BD4268B7
:104AC0002C2AF6D102680393946893888668C76895
:104AD0000021200098461569FEF7F0FE0028EAD173
:104AE000290003AA0430FEF7ADFA0028E3D1200024
:104AF00004A9FEF711FF0028DDD14146049A059B69
:104B00000398019700960BF003F9D4E710B501293B
:104B100002D08120404210BD012BFAD843682C2BD3
:104B2000F7D103CA0BF048F9F5E7C046F0B5D64611
:104B30004F464646C0B50139140086B0012901D858
:104B4000012B07D98120404206B0E0BCBA46B146ED
:104B5000A846F0BD43682C2BF4D1036812689D6809
:104B60009046DE686268C368876800212800914625
:104B70009A46FEF7A3FE0028E6D1280004A9FEF716
:104B8000CBFE0028E0D14B460293434601935346A7
:104B90000434009330003B000499059A03940BF011
:104BA00035F9D1E730B51B4C0569A54414AB029328
:104BB000802304AADB000400016A0092019503939C
:104BC000402D23D8994215D3134BA1686068196012
:104BD0002B000021FDF7D0F8854214D101230121DB
:104BE000684602AA00F0C2FA051E05D028000B4B49
:104BF0009D4430BD0391E7E70021039B6068029A62
:104C0000FDF7BCF8F2E784256D42EFE787256D429A
:104C1000ECE7C046ACFBFFFF086B01085404000042
:104C200070B5A8B000F08EFA00281DD141255F4C68
:104C30008021012009064042FDF79AF8C30641D4BD
:104C4000830655D4430610D540200BA9FDF792F8F2
:104C50000028EDD10B98002808DA831C58DB0021CE
:104C60000C98FDF78DF8E3E7FEE7FEE7002850D14A
:104C700017AB059303AB07930123089304AB099388
:104C800004230A93149B06950193012B00D086E020
:104C9000159B0193042B00D081E00D9B05AA019385
:104CA00023600100032300F0C7FA139A049B060057
:104CB00001929A4276D3002855D031000C98FDF726
:104CC0005FF8B5E7102017A9FDF754F80028AFD119
:104CD000179B002B02DA023315DAFEE7002B3FD1D7
:104CE00017A8FFF75FFF01001898FDF749F89FE745
:104CF000202017A9FDF73EF8002899D1179900291F
:104D000008DA8B1C2DDB00211898FDF739F88FE7A6
:104D1000FEE7FDE7002925D103AB059304AB1B9A01
:104D20000B931F9B06920C93042A35D1042B33D18D
:104D3000199A18980192226003AAFDF71DF81B9B8F
:104D40000193984228D101230BAA190005A800F06D
:104D50003FFA061E19D031001898FDF711F867E7E1
:104D6000BBE7FEE7FDE70C9817AA0021FDF706F860
:104D7000089B0C9803AA0121FDF700F802210A9B69
:104D80000C9804AAFCF7FAFF97E701000C9B0B9A1A
:104D90001898FCF7F3FFDEE787267642DBE78726E5
:104DA00076428AE78A26764287E7C046086B010882
:104DB000F0B5002357464546DE464E46E0B5136043
:104DC000224B82469946224B904600249B463F2721
:104DD00085B0019103AD4B461B885B4520D14B4606
:104DE0005E884E44002C24D0210004222800FCF7C9
:104DF00077F943461B686C889C46043464440BE096
:104E0000042221002800FCF76BF92B889A11174225
:104E100011D06B880433E418A642F1D8002001E0D9
:104E20000120404205B0F0BCBB46B246A946A046B0
:104E3000F0BD1C1DF0E7424614606A8801993B40B2
:104E40000A809A45C7D10120ECE7C0460C6B0108E7
:104E500016200000F0B5DE4657464E464546E0B502
:104E6000CDB007000E00150000F020FA041E09D096
:104E700000F046FA20004DB0F0BCBB46B246A94651
:104E8000A046F0BD07230022002100965B4212A835
:104E900000F0A2FA041E51D001284DD00524E7E706
:104EA0004C465546002C00D112E100220421039803
:104EB0001BF074F808A818F00BFC0A90002806D024
:104EC000089B32009149736012A800F011FB08A8FA
:104ED00018F022FC0A90002806D0089B32008C496A
:104EE000736012A800F004FB12230822002108A816
:104EF0000693FCF751F90023079302AB0E249C465E
:104F000064442100012007AAFFF752FF012800D0C6
:104F1000E5E0079B04330893238809937D4912A891
:104F200008AA00F0E5FA290012A800F097FA002874
:104F300000D1C9E00128B1D1022499E73A007649AD
:104F400012A800F0C3FA0822002108A8FCF724F9EF
:104F5000002007AA06A90794FFF72AFF012800D01E
:104F600087E0079B0AAE0433089302AB1B8A0993C0
:104F70006A4908AA12A800F0A9FA300000F0EEF978
:104F8000041E00D074E7664912A8320000F09EFAB1
:104F90002023310007A8079318F00CFC002873D1D8
:104FA000079B604908AA12A80993089600F08EFA98
:104FB000300000F0AFFA041E00D059E70A9B0A9AAD
:104FC000594912A8DB1700F073FA3200022006A933
:104FD0000A94FFF7EDFE012858D018F05FFB02009D
:104FE000C223DB019A4200D358E700234F4912A89D
:104FF00000F05EFA12A800F059FA002398464C4BD4
:10500000AA469B46A146454603905B46494A1B88F3
:10501000934239D15B465C88474B5C449C4200D844
:105020003EE71F003F23984604E073880433FF18CF
:10503000BC4219D9042239003000FCF751F842462D
:1050400033889B1113409D42EFD101239C46E144DC
:105050004B467488012B4CD03A1D2300092103983C
:10506000326074601AF000FF062D00D118E7013598
:10507000CBE70AAE3100202018F072FB002803D1E4
:1050800020230896099373E70324F1E602AB0A9AFA
:105090001B8A111D022B05D0042B10D0012B0BD025
:1050A0000534E5E6022207A8FCF71AF802AB9B8A52
:1050B0000893089B9AB293E713790893F9E70422BF
:1050C00008A8FCF70DF8F4E700F01AF90400D1E69F
:1050D00001220023194912A800F0EAF9EAE631009A
:1050E00006A818F093FB0028CED1069B08960993DA
:1050F00014E70399012388460800114A5B421AF01D
:105100008DFE042140461AF021FFA5E7FEDAFEFFDE
:1051100008DBFEFF03DBFEFF00DBFEFF04DBFEFF20
:10512000FFDAFEFF05DBFEFF07DBFEFF06DBFEFF0F
:105130000C6B010816200000106B010801DBFEFF5C
:1051400002DBFEFF802210B501200649920000F02C
:10515000E9F9052803D8044B8000C05810BD84200D
:105160004042FBE70C6B01089870001010B514006A
:1051700086B001290FD1012B0DD10368126800936D
:1051800002924368626801930392402B07D00F316B
:105190008B43202B03D08720404206B010BD002A4D
:1051A000F9D0684604AA02A9FFF754FE002804D1EA
:1051B000049B2360059B6360EFE7052802D98420E8
:1051C0004042EAE7014B8000C058E6E798700010C3
:1051D00010B586B0012913D1012B11D15368032BCF
:1051E0000ED91468002203681B6800920292104ACC
:1051F00001930392402B07D010229343202B03D01E
:105200008720404206B010BD684604AA02A9FFF7F5
:1052100021FE002802D1059B2360F3E7052802D96F
:1052200084204042EEE7034B8000C058EAE7C046C6
:10523000FFFFFF7F9870001070B5140084B0002944
:1052400001D1032B03D08720404204B070BDD36846
:10525000012BF8D15369042BF5D16B4616685568BC
:1052600003A9DA1D02A800F063F800280FD1039A01
:10527000954211D330000299FBF732FF6B46A268CA
:10528000DB79002013702369039A1A60DDE7052893
:1052900005D984204042D8E78A204042D5E7024B16
:1052A0008000C058D1E7C0469870001030B5104D4E
:1052B00083B02B68002B0DD16B462800D91D18F048
:1052C00031FB041E06D10B4B1A68002A04D02000C3
:1052D00003B030BD0524FAE7286807494132FCF7DE
:1052E0009DF80028F6D16B46DA79044B1A70EEE788
:1052F000146D01085C6D0108186D0108106D01083E
:10530000044B1A68002A03D0002200201A6070475C
:105310000520FCE7146D0108044B1B68002B02D02C
:105320000360002070470520FCE7C046146D0108AB
:10533000074B10B51B68002B07D0064C04600020FB
:105340000B60054B1B78137010BD0520FCE7C046B1
:105350005C6D0108186D0108106D010870B5194DDC
:1053600004002B6882B0002B06D0002C27D0002030
:10537000154A0CC402B070BD0193144B1E68002E78
:105380001BD0134901A8FCF77FF8002815D1320083
:10539000104901A8FCF7A6F800280ED10A4E2B00F0
:1053A0002022711C01A8FCF7CDF8002805D10123AB
:1053B00033702B6801332B60D7E70320DAE7052031
:1053C000D8E7C046846D0108606D01085C6D010876
:1053D00009000002186D0108F0B51F0006009823AF
:1053E0000D00C150A036043383B0C25004004822DF
:1053F00000213000ED0FFBF7CFFE3762B56301A847
:10540000FFF78AFF002825D1DC230227E050043370
:10541000E050183BE7542300019AD03358601A60DB
:10542000089B200006CB1AF0E3FC210030001AF0A4
:1054300075FE051E07D003280ED0193D6B1E9D4139
:105440006D423D400135052120001AF07FFD280006
:1054500003B0F0BD0E25FAE70425F4E770B50400AB
:1054600082B00D00002205211AF098FD20002100D5
:10547000A0301AF0CBFE002808D0032812D019382B
:10548000431E98414000013002B070BD6E462000BE
:1054900031001AF0C5FD0128F6D0002804D10CCE49
:1054A0000CC5F1E70420EFE70220EDE77047C046A6
:1054B00070B516001D0004000A00CB171AF0AEFCF0
:1054C00032002B0020001AF0A9FC70BD70B504005A
:1054D0001668556882B00A00CB171AF09FFC32009C
:1054E0002B00022120001AF0BFFC02B070BDC046A4
:1054F00070B504001668556882B00A00CB171AF020
:105500008DFC32002B00032120001AF0ADFC02B00C
:1055100070BDC046024B1B68036000207047C04648
:10552000086B010810B5FBF7F7FE431E984110BD4C
:1055300070B5134C88B02369082B1DD1236A0C2B3E
:105540001AD100216068043B02AAFCF715FC082868
:1055500012D1029A039B05AE0096A06800F072FA81
:10556000051E02D0280008B070BD0C2332000021B7
:105570006068FCF703FCF5E781256D42F2E7C04661
:105580008879010830B5144C89B02369082B1FD1E4
:105590006369042B1CD100216068043306AA256AC4
:1055A000FCF7EAFB082813D104230121606804AA50
:1055B000FCF7E2FB04280BD105ABA0680293049B27
:1055C00001950093069A079B00F0D0F909B030BD11
:1055D00081204042FAE7C0468879010830B5134C73
:1055E00087B02369082B1DD1A369042B1AD1002190
:1055F0006068043304AA6569FCF7BEFB082811D172
:1056000004230221606803AAFCF7B6FB042809D131
:10561000039BA06801930095049A059B00F02EF966
:1056200007B030BD81204042FAE7C04688790108C2
:1056300030B583B000F096F8002874D181253C4C39
:105640006D428021012009064042FCF791FBC30610
:1056500016D521001020FCF78DFB0028F1D123681E
:10566000002B32DA023339DB00216068FCF788FB5B
:105670008021012009064042FCF77AFBC306E8D4EA
:1056800083062ED443063DD4030627D5210080206F
:10569000FCF770FB0028D4D12368002BE2DB1DD17E
:1056A0002369082B42D108236A4600216068FCF771
:1056B00063FB08283AD1009A019BA06800F0F8F932
:1056C00001006068FCF75CFBBBE7002B06D1FFF72D
:1056D00085FF01006068FCF753FBB2E7FCF752FB63
:1056E000AFE721002020FCF745FB0028A9D1236863
:1056F000002BB7DBF2D1FFF745FF01006068FCF734
:105700003FFB9EE721004020FCF734FB002898D1A6
:105710002368002BA6DBE1D1FFF70AFF01006068D8
:10572000FCF72EFB8DE7FCF72DFB87E72900C8E788
:105730008879010810B50B0003490200486801216F
:10574000FCF71AFB10BDC0468879010810B50B00A4
:105750000349020048680021FCF710FB10BDC04659
:1057600088790108F0B53F4B87B09E6AB04703695E
:10577000012B00D073E0B0473B4C83682381B047D6
:10578000037D6846237504F065FA002867D1009B05
:10579000019863606B46197A2389594389B2618104
:1057A000FBF7CEFAA08104F06DFA208204F072FAC1
:1057B00001306082B0470369012B50D1B0472B4DB7
:1057C00083682B81B047037D03A82B7504F06AFA28
:1057D000002844D1039B04986B606B46197D2B898C
:1057E000594389B26981FBF7ABFAA88104F072FAD8
:1057F0002830288204F076FA1D4F1E4E033068824E
:105800003A002100300000F063FA002801D007B010
:10581000F0BD300000F0A2FA002815D1164C3A0075
:105820002900200000F054FA0028F0D1200000F0F8
:1058300095FA0028EBD0200000F0AEFA0028E6D15F
:10584000200000F08BFAE2E7300000F0A5FA002813
:10585000DDD1300000F082FA0028D8D1DEE78120C7
:105860004042D4E760B20210009C0008189C000877
:10587000B0700010B8810108D0810108F0B545462C
:10588000DE4657464E461100E0B589B00500129C31
:1058900019435BD00721139F8F4354D107932D4B9E
:1058A000059099461800069205A90422FBF718FCFA
:1058B0004B460822181D06A9FBF712FC80235B004B
:1058C0009D423DD0244B9A46244D49462A005046DD
:1058D00000F066FA00282DD003008C3323D1C026B7
:1058E000139BB6021E431E4B984680231B019B460A
:1058F00004E01C4B7F191E40641B14D025005C453E
:1059000001D980252D0129004046FFF713FF4346AA
:10591000320002934946230050460197009500F05B
:1059200065FA0028E5D009B0F0BCBB46B246A946EE
:10593000A046F0BDAB68DB07D1D585204042F2E739
:10594000094B9A46C0E786204042ECE78720404258
:10595000E9E7C046E8810108B8810108F48101083F
:10596000B8790108FFFFFCFFD0810108F0B5574668
:10597000DE464E4645461100E0B587B00400109F54
:10598000194352D005932A4B03909946180004926C
:1059900003A90422FBF7A4FB4B460822181D04A907
:1059A000FBF79EFB80235B009C423BD0214B9A4639
:1059B000214C49462200504600F0F2F9061E27D13C
:1059C0002468BC4231D3119BE41B9C4228D8129B13
:1059D0001C601A4B984680231B019B4606E0290059
:1059E0004046FFF7B3FE7F19641B11D025005C45CC
:1059F00001D980252D0143462A00009349463B00EA
:105A0000504600F003FB061EE9D00023129A1360F3
:105A1000300007B0F0BCBB46B246A946A046F0BD78
:105A20001C00D4E7064B9A46C2E787267642EFE78A
:105A3000E8810108B8810108F4810108B8790108FA
:105A4000D0810108110070B584B00400089E19438C
:105A500022D0134D0190029201A904222800039341
:105A6000FBF73EFB0822281D02A9FBF739FB802328
:105A70005B009C420ED00B480B4C2900220000F02A
:105A80008FF9002804D1A2682368B2603360736084
:105A900004B070BD0548EFE787204042F8E7C046F4
:105AA000E8810108B8810108F4810108D08101086A
:105AB000110070B51943040084B0002925D0164D9B
:105AC0000190029201A9042228000393FBF708FB2E
:105AD0000822281D02A9FBF703FB80235B009C42E0
:105AE00011D00E4E0E4C29002200300000F058F963
:105AF000002806D1A368DB070AD42900300000F093
:105B000073FA04B070BD074EECE787204042F8E717
:105B100085204042F5E7C046E8810108B8810108C8
:105B2000F4810108D0810108036810B500209B684A
:105B30009847002800D110BD92204042FBE7C046A4
:105B400070B505000C004089110044436A6898183C
:105B50002B68049A5B6920189847002800D170BD13
:105B600092204042FBE7C04670B505000C0040891A
:105B7000110044436A6898182B68049A9B6920189E
:105B80009847002800D170BD92204042FBE7C046F4
:105B90000020704770B5040040890E00002813D023
:105BA000002504E023896089ED18A8420CD96368B8
:105BB00070439C4623686044DB694019984700287D
:105BC000F0D09220404200E0002070BDF0B54E467B
:105BD0004546DE465746E0B503688DB004AA050089
:105BE0000E005C8900F0D4FC002806D00DB0F0BC9B
:105BF000BB46B246A946A046F0BD09A801F008F888
:105C0000002861D1059B20229946079B002104A80A
:105C10009A46049FFBF7C0FA3100280004AA00F05E
:105C2000C5FE0028E2D12B68A0465B8A002B2FD04E
:105C30000022002493460BE02100280004AA00F073
:105C4000B5FE0028D2D12B685B8A0134A34221D94A
:105C5000A642FAD02100280004AA00F099FC0028EE
:105C6000C4D1049B0393BB42E6D109A800F0D0FF46
:105C70000028E1D1059B4B45DED9984500D99846CF
:105C800052469B1A0593079B9C460393E344D3E734
:105C900000239B465B4601934B46524600933900D6
:105CA0004346280000F0E6F900289FD1002F07D0D6
:105CB000280000F0EFFE002802D08420404295E743
:105CC000280000F02FFC91E78C2040428EE7C04670
:105CD000F8B505000C00170000281BD0002919D0CA
:105CE000002A17D048898989238A628A012914D910
:105CF00003292BD00026022911D1010000265201D0
:105D00001439891A99427641872176420E40873E9E
:105D1000984221D28726764216E08726764298421C
:105D200018D28726520176428B1E5900CB189B0051
:105D3000D31808338342EDD8002E05D1280018224D
:105D40000021FBF729FA90C53000F8BD9842E8D34E
:105D5000872676425201E7E70C23E9E730B583B0A6
:105D6000050000F0A7FB041E02D0200003B030BDE8
:105D70008021280001AA490400F022FB002804D059
:105D800003008C33F1D00400EFE728000199FFF7FE
:105D90001DFF0400E9E7C04610B500F039FD10BD55
:105DA00070B58CB0160003AA04000D0000F08EFA46
:105DB000002818D12000039904AA00F0E9FB00286C
:105DC00001D00CB070BD0C22280009A9FBF720FA05
:105DD000002808D1079B7360069B0193336002ABD8
:105DE0001B8BB360EDE78C204042EAE7F0B54746F5
:105DF000CE4680B598467A4B93B00593069304003F
:105E00000E001500130E00D0E7E005AA00F05EFAC0
:105E1000002800D19BE003008C3300D08AE0EB0324
:105E200000D4D7E0069B6E4A934200D0A1E02368DD
:105E30001B8A434500D2D0E06A4B059A9C466244D7
:105E4000531E9A4107AB994603930AAF06AB0193E1
:105E5000310043462000D2B20297009500F024FCA6
:105E6000002867D11A9B002B29D01B9BBA6893424C
:105E70006AD819001A9AF86800F0BEFE002863D1AB
:105E80001C9B3A0001931A9B4946009320001B9BE0
:105E900000F064F9002857D11B9A1A9B9446BA68FF
:105EA0006344934200D972E00A992000079D00F0F4
:105EB00007FA290007900A9A200000F073FD4A466D
:105EC00020000A9900F02CFE00283DD13A00200065
:105ED000069900F06BFD002836D1069B059D9D427A
